{
  "contractName": "MyContract",
  "abi": [
    {
      "constant": true,
      "inputs": [],
      "name": "x",
      "outputs": [
        {
          "name": "",
          "type": "uint256"
        }
      ],
      "payable": false,
      "stateMutability": "view",
      "type": "function"
    },
    {
      "constant": true,
      "inputs": [],
      "name": "s",
      "outputs": [
        {
          "name": "",
          "type": "string"
        }
      ],
      "payable": false,
      "stateMutability": "view",
      "type": "function"
    },
    {
      "constant": false,
      "inputs": [
        {
          "name": "_x",
          "type": "uint256"
        },
        {
          "name": "_s",
          "type": "string"
        }
      ],
      "name": "initialize",
      "outputs": [],
      "payable": false,
      "stateMutability": "nonpayable",
      "type": "function"
    },
    {
      "constant": false,
      "inputs": [],
      "name": "increment",
      "outputs": [],
      "payable": false,
      "stateMutability": "nonpayable",
      "type": "function"
    },
    {
      "constant": false,
      "inputs": [],
      "name": "decrement",
      "outputs": [],
      "payable": false,
      "stateMutability": "nonpayable",
      "type": "function"
    }
  ],
  "bytecode": "0x608060405234801561001057600080fd5b5061052e806100206000396000f3fe60806040526004361061006d576000357c0100000000000000000000000000000000000000000000000000000000900463ffffffff1680630c55699c146100725780632baeceb71461009d5780636e9d13ab146100b457806386b714e214610186578063d09de08a14610216575b600080fd5b34801561007e57600080fd5b5061008761022d565b6040518082815260200191505060405180910390f35b3480156100a957600080fd5b506100b2610233565b005b3480156100c057600080fd5b50610184600480360360408110156100d757600080fd5b8101908080359060200190929190803590602001906401000000008111156100fe57600080fd5b82018360208201111561011057600080fd5b8035906020019184600183028401116401000000008311171561013257600080fd5b91908080601f016020809104026020016040519081016040528093929190818152602001838380828437600081840152601f19601f820116905080830192505050505050509192919290505050610246565b005b34801561019257600080fd5b5061019b61039b565b6040518080602001828103825283818151815260200191508051906020019080838360005b838110156101db5780820151818401526020810190506101c0565b50505050905090810190601f1680156102085780820380516001836020036101000a031916815260200191505b509250505060405180910390f35b34801561022257600080fd5b5061022b610439565b005b60335481565b6002603360008282540392505081905550565b600060019054906101000a900460ff1680610265575061026461044c565b5b8061027c57506000809054906101000a900460ff16155b1515610316576040517f08c379a000000000000000000000000000000000000000000000000000000000815260040180806020018281038252602e8152602001807f436f6e747261637420696e7374616e63652068617320616c726561647920626581526020017f656e20696e697469616c697a656400000000000000000000000000000000000081525060400191505060405180910390fd5b60008060019054906101000a900460ff1690506001600060016101000a81548160ff02191690831515021790555060016000806101000a81548160ff02191690831515021790555082603381905550816034908051906020019061037b92919061045d565b5080600060016101000a81548160ff021916908315150217905550505050565b60348054600181600116156101000203166002900480601f0160208091040260200160405190810160405280929190818152602001828054600181600116156101000203166002900480156104315780601f1061040657610100808354040283529160200191610431565b820191906000526020600020905b81548152906001019060200180831161041457829003601f168201915b505050505081565b6001603360008282540192505081905550565b600080303b90506000811491505090565b828054600181600116156101000203166002900490600052602060002090601f016020900481019282601f1061049e57805160ff19168380011785556104cc565b828001600101855582156104cc579182015b828111156104cb5782518255916020019190600101906104b0565b5b5090506104d991906104dd565b5090565b6104ff91905b808211156104fb5760008160009055506001016104e3565b5090565b9056fea165627a7a7230582027712cd17ad1e63e1f0c4b51595f354e6e4dd0204d5f663ed04c75992c9a07a20029",
  "source": "pragma solidity ^0.5.0;\n\nimport \"zos-lib/contracts/Initializable.sol\";\n\ncontract MyContract is Initializable {\n\n  uint256 public x;\n  string public s;\n\n  function initialize(uint256 _x, string memory _s) initializer public {\n    x = _x;\n    s = _s;\n  }\nfunction increment() public {\n    x += 1;\n  }\nfunction decrement() public {\n    x -= 2;\n  }\n\n}\n",
  "sourcePath": "/home/dev/ETH/test-delete/my-project/contracts/MyContract.sol",
  "compiler": {
    "name": "solc",
    "version": "0.5.0+commit.1d4f565a.Emscripten.clang"
  },
  "schemaVersion": "3.0.8",
  "updatedAt": "2019-04-28T16:43:12.470Z",
  "devdoc": {
    "methods": {}
  },
  "userdoc": {
    "methods": {}
  }
}